101 191001234 9922222261210151518A094101Certification Bank-SiliCERTIFICATION BANK-SILIRETURNS 5200COMPANY INC     DISC DATA           1412345678CORDESCRIPT  12101512101500019922222200000016211211403993300911569       0000000000A38LTNY2       NAME ONE                1121140390280747798C05992222220280489      1211403932                                          121140390280747820000000200121140390000000000000000000000001412345678                         9922222200000015200COMPANY INC     DISC DATA           1412345678PPDDESCRIPT  12101512101500019922222200000026261211403993300911569       0000002536GKGQT9VK       NAME TWO                1121140390280738799R07992222220280393      12114039INVALID                                     121140390280738820000000200121140390000000025360000000000001412345678                         9922222200000025200COMPANY INC     DISC DATA           1412345678PPDDESCRIPT        12101500019922222200000036261211403993300911569       0000002417KYU341VP       NAME THREE              1121140390280729799R03992222220280389      12114039                                            121140390280729820000000200121140390000000024170000000000001412345678                         9922222200000039000003000002000000060036342117000000004953000000000000999999999999999999999999999999999999999999999999999999999999999999999999999999999999999999999999999999999999999999999999999999999999999999999999999999999999999999999999999999999999999999999999999999999999999999999999999999999999999999999999999999999999999999999999999999999999999999999999999999999999999999999999999999999999999999999999999999999999999999999999999999999999999999999999999999999999999999999999999999999999999999999999999999999999999999999999999999999999999999999999999999999999999999999999999999999999999999999999999999999999999999999999999999999999
